:100000000C94BA020C94E2020C94E2020C94E20208
:100010000C94E2020C94E2020C94E2020C94E202D0
:100020000C94E2020C94E2020C94E2020C94E202C0
:100030000C94E2020C94E2020C94E2020C94E202B0
:100040000C9451160C94E2020C944A140C947C14F7
:100050000C94E2020C94E2020C94E2020C94E20290
:100060000C94D0110C94E2020C94E2020C94E20283
:100070000C94E2020C94E2020C94E2020C94E20270
:100080000C94E2020C94E2020C94E2020C94E20260
:100090000C94E2020C94E2020C94E2020C94E20250
:1000A0000C945A0F0C94E2020C94E2020C94E202BB
:1000B0000C94E2021017131706170A173417341797
:1000C00017171B172117251734172B172F17756EA6
:1000D0006B6E6F776E20636F6D6D616E64002C20A8
:1000E00073746174653A0067726F75703A00677275
:1000F0006F75707320636C6561726564007C0020AD
:100100000078007C007C202020202020202000205F
:100110000067726F75702000636861207074202022
:100120007C317C327C337C347C357C367C377C384B
:100130007C20636862207074207C317C327C337C4C
:10014000347C357C367C377C387C20766363207049
:1001500074207C317C327C337C347C357C367C373B
:100160007C387C002C206368616E6E656C3A002CD4
:1001700020706F72743A0067726F75703A00616C2C
:100180006C3A006D62620062626D006D616E006DBE
:100190006F64653A002C2073746174653A002C20FA
:1001A0006368616E6E656C3A00706F72743A0076C7
:1001B0006363706F72743A0064656C61793A002C05
:1001C0000020706F72745F623A0020706F72745F0B
:1001D000613A007663633A0076315F303000763101
:1001E0005F3030006932635F616464723A20307856
:1001F00000636F6D6D616E64206572726F72006373
:100200006861696E20202020202D20652E672E2019
:100210007631312C763231202D706F727420312C72
:100220003220766363206F6E202836342063686145
:1002300072732900313D627265616B2D62342D6DE0
:10024000616B652C323D6D616B652D62342D627280
:1002500065616B29006D203D6D6F64652028303D20
:100260006D616E20746F67676C652C0029006720D4
:100270003D67726F7570206E756D626572202831F2
:100280002D0063203D6368616E6E656C2028612FD0
:10029000622F763D766363290070203D706F727423
:1002A0002028312D3829005B6F7074696F6E735D83
:1002B000202D2073203D73746174652028313D6FBB
:1002C0006E2F303D6F666629007A20202020202086
:1002D0002020202D20636865636B2066772076657B
:1002E000727300645B6D735D20202020202D206DD3
:1002F0006F6465207377697463682064656C6179E5
:10030000206D733C3D39303000652E672E206D31F5
:10031000202D7365742062626D006D5B6D5D202021
:10032000202020202D20736574206F706572617409
:1003300065206D6F64650072202020202020202021
:10034000202D2072657365742067726F757073005D
:10035000662020202020202020202D20676574206A
:1003600067726F7570206D617000652E672E207842
:100370003231202D67726F75702032206F6E0078D9
:100380005B675D5B735D2020202D207365742067A3
:10039000726F757000475B675D5B705D5B635D2DC1
:1003A0002072656D6F766520706F72742066726F53
:1003B0006D2067726F757000652E672E2067323171
:1003C00062202D61646420706F727420312D622070
:1003D000746F2067726F7570203200675B675D5BBA
:1003E000705D5B635D2D2061646420706F727420AA
:1003F000746F2067726F757000732020202020209A
:100400002020202D2067657420706F727420616E2B
:1004100064207663632073746174657300652E676E
:100420002E20763231202D706F7274203220766348
:1004300063206F6E00765B705D5B735D2020202D06
:1004400020736574207663632C20616C742E207495
:100450006F20705B705D765B735D00652E672E208C
:1004600070326131202D706F7274203220636861A8
:100470006E6E656C2061206F6E00705B705D5B63FB
:100480005D5B735D2D2073657420706F7274006501
:100490002E672E206131202D616C6C20706F72747C
:1004A00073206F6E00615B735D2020202020202D63
:1004B0002073657420616C6C20706F7274730069B6
:1004C0002020202020202020202D207072696E7492
:1004D00020626F6172642061646472006820202071
:1004E0002020202020202D207072696E74206D65E0
:1004F0006E75002020202020202020202020200099
:10050000090C0D08000201000003040700000000B0
:1005100000000000000000000102040810204080DC
:10052000010204081020010204081020040801023E
:100530000404040404040404020202020202030389
:100540000303030305050505000000002300260042
:1005500029002C0000000000250028002B002E00A0
:1005600000000000240027002A002D009A07710EC9
:100570007711AC1411241FBECFEFD8E0DEBFCDBF82
:1005800011E0A0E0B1E0EEE5F0E302C005900D92CD
:10059000A236B107D9F724E0A2E6B1E001C01D926E
:1005A000A031B207E1F712E0CAEBD2E004C0219714
:1005B000FE010E94EB17C63BD107C9F70E94421605
:1005C0000C942D180C940000FF920F931F93CF935F
:1005D000DF93C62F142FF22E032F682F87EE91E0A2
:1005E0000E94EA0D6C2F87EE91E00E948D0DCF2DB9
:1005F000D02FCE01810F911D8C01C017D10731F092
:10060000699187EE91E00E948D0DF7CF87EE91E022
:100610000E946E0E91E0811190E0892FDF91CF91C1
:100620001F910F91FF900895CF93DF931F92CDB745
:10063000DEB749839E012F5F3F4F41E00E94E402F5
:100640000F90DF91CF9108953F924F925F926F92FA
:100650007F928F929F92AF92BF92CF92DF92EF9252
:10066000FF920F931F93CF93DF9300D000D000D061
:10067000CDB7DEB7D82EC62E4D8379010E949B16CA
:100680004B015C01312C1E829D81892F90E09C835F
:100690008B832801612C712CED813E16C8F56D2DE0
:1006A00087EE91E00E94EA0D6C2D87EE91E00E94AA
:1006B0008D0D87EE91E00E946E0E6D2D87EE91E01C
:1006C0000E94EA0D4B815C81431951094132510569
:1006D00014F040E250E06D2D87EE91E00E946B0E29
:1006E00087EE91E00E94340D892B09F443C0011577
:1006F000110569F10E949B16DC01CB01881999094B
:10070000AA09BB0984159505A605B70500F132C0F5
:1007100001151105A9F10E949B16DC01CB01881976
:100720009909AA09BB0920E030E080179107A207C8
:10073000B30730F1FD812F2F30E04E81842F440F1D
:10074000990B82179307E4F48FEF8E8319C0F7019A
:100750002E81E20FF11D27FDFA95FA83E98387EEDA
:1007600091E00E943C0DE981FA818083FE81FF5F68
:10077000FE83B6CF8D81813208F080E2380E8CCFB7
:100780008E8126960FB6F894DEBF0FBECDBFDF91E7
:10079000CF911F910F91FF90EF90DF90CF90BF907E
:1007A000AF909F908F907F906F905F904F903F9011
:1007B00008950F931F9389019A0141E00E94240339
:1007C0001F910F910895DF92EF92FF920F931F9365
:1007D000CF93DF931F92CDB7DEB7D42E7901980166
:1007E000AE014F5F5F4F0E94D90321E030E001C0AE
:1007F000220FDA94EAF799812923F70120830F90D9
:10080000DF91CF911F910F91FF90EF90DF900895AE
:10081000EF92FF920F931F93CF93DF931F92CDB769
:10082000DEB7182F062FF42EE22E20910001309112
:100830000101AE014F5F5F4F0E94D903898141E002
:1008400050E001C0440FFA94EAF7EE2011F0482B73
:1008500002C0409548234983602F812F0E941403D2
:100860000F90DF91CF911F910F91FF90EF9008951E
:1008700022E2FC012083089508950F931F930091B5
:100880000001109101019C012F5F3F4F43E060E0A8
:10089000FC0180810E94240391E0833009F090E004
:1008A000892F1F910F9108950F931F93CF93DF937B
:1008B000EC0100910001109101019C012F5F3F4F5D
:1008C000462F477083E0769567958A95E1F76C5FD0
:1008D00088810E94E30381E09981911101C080E049
:1008E000DF91CF911F910F910895242F462F4770CC
:1008F00033E0769567953A95E1F76C5FFC0180816E
:100900000C940804FC016183428323839C012F5FC4
:100910003F4F43E064E880810C94E4020F931F93FF
:10092000CF93DF93EC0100910001109101019C0134
:100930002F5F3F4F462F477083E0769567958A95E6
:10094000E1F7645F88810E94E30381E0998191115E
:1009500001C080E0DF91CF911F910F910895242F66
:10096000462F477033E0769567953A95E1F7645FD7
:10097000FC0180810C940804FC0161834283238381
:100980009C012F5F3F4F43E06CE880810C94E402B0
:100990001816190644F4EFECF7E03197F1F700C0B0
:1009A00000000197F5CF089563EF74E08AE693E0C5
:1009B0000C9418156CED74E08AE693E00E944715DC
:1009C0006FEB74E08AE693E00E94471565EA74E0F5
:1009D0008AE693E00E9447150E94D4046FE874E011
:1009E0008AE693E00E9447156AE774E08AE693E09E
:1009F0000E9447150E94D4046BE574E08AE693E0F8
:100A00000E94471565E374E08AE693E00E9447156B
:100A10000E94D4046DE174E08AE693E00E944715D9
:100A200069EF73E08AE693E00E9447156BED73E08F
:100A30008AE693E00E9447150E94D40468EB73E0B5
:100A40008AE693E00E94471565E973E08AE693E041
:100A50000E9447156FE773E08AE693E00E9447150E
:100A60000E94D4046AE673E08AE693E00E94471588
:100A700060E573E08AE693E00E94471567E373E060
:100A80008AE693E00E9447156AE173E08AE693E004
:100A90000E9447150E94D40469E073E08AE693E05F
:100AA0000E94471563EE72E08AE693E00E944715C4
:100AB00069EC72E08AE693E00E94471567EA72E00B
:100AC0008AE693E00E9447150E94D40469E972E027
:100AD0008AE693E00E9447150E94D40462E872E01F
:100AE0008AE693E00E9447150E94D4046EE672E005
:100AF0008AE693E00E9418154AE050E069E070E051
:100B00008AE693E00E943A166CE672E08AE693E089
:100B10000E9447150E94D40465E572E08AE693E0DE
:100B20000E9447150E94D40464E372E08AE693E0D1
:100B30000E9447156FEF71E08AE693E00E94471527
:100B400065E571E08AE693E00C94591561EF71E078
:100B50008AE693E00C94471585E090E00C94C80475
:100B6000FF920F931F93CF93DF93EC01F62E088132
:100B70001981C8010E941718F81621F06F2DC801BD
:100B80000E941F18CE01DF91CF911F910F91FF900E
:100B9000089520E040E0813049F460E082E691E091
:100BA0000E94BC0420E040E060E008C06FEF82E6F5
:100BB00091E00E94BC042FEF4FEF6FEF82E691E0CF
:100BC0000C948204682F70E0883028F482E691E06B
:100BD0000E948E0404C082E691E00E94540491E0D9
:100BE00089270895CF92DF92EF92FF920F931F9380
:100BF000CF93DF9305E111E0C0E0D0E0C12CD12C10
:100C00007601F80181918F010E94E20590E0A0E059
:100C1000B0E00C2E04C0880F991FAA1FBB1F0A94B6
:100C2000D2F7C82AD92AEA2AFB2A2196C830D10548
:100C300041F70DE011E0F80181918F010E94E2057A
:100C400090E0A0E0B0E00C2E04C0880F991FAA1F0E
:100C5000BB1F0A94D2F7C82AD92AEA2AFB2A21966E
:100C6000C031D10541F705E011E0F80181918F0114
:100C70000E94E20590E0A0E0B0E00C2E04C0880FD6
:100C8000991FAA1FBB1F0A94D2F7C82AD92AEA2A99
:100C9000FB2A2196C831D10541F7C701B601DF9182
:100CA000CF911F910F91FF90EF90DF90CF9008951B
:100CB000CF93DF93C82FD0E0613059F440E0BE01FC
:100CC000883088F482E691E00E94AF0440E0BE01E3
:100CD0000AC041E0BE01883030F482E691E0DF9145
:100CE000CF910C94AF0482E691E0DF91CF910C9408
:100CF0007504CF92DF92EF92FF920F931F93CF93E1
:100D0000DF9300D0CDB7DEB743ECE42E41E0F42E04
:100D100002E510E06701F70180819181A281B38132
:100D2000BD01882799271A830983CE0101960E9465
:100D3000B005F70181919191A191B1917F01692F46
:100D40007A2F8B2F99279801215031093A832983D3
:100D5000CE0101960E94B005F6016081C80102979C
:100D60009A838983CE0101960E94B0050D5F1F4FC3
:100D70000D36110579F61A82198260E0CE010196CE
:100D80000E94B0050F900F90DF91CF911F910F91AE
:100D9000FF90EF90DF90CF900895BF92CF92DF92B7
:100DA000EF92FF920F931F93CF93DF9380E484B968
:100DB00085B980E090E00E9417188F3FD1F462E07F
:100DC00087E00E94351762E086E00E94351762E0F6
:100DD00085E00E94351787E00E94A017C1E0892BAB
:100DE00009F0C0E086E00E94A017892B39F180E06D
:100DF00026C003EC11E0C2E5D0E0CE010E94171836
:100E0000B82ECE0101970E941718C82ED12CE12CC4
:100E1000F12CFE2CED2CDC2CCC24EB28CE010297FF
:100E20000E941718C82AF801C192D192E192F1925A
:100E30008F012396CD36D10501F7C1CF82E0C82BB3
:100E400085E00E94A017892B11F080E001C084E0AA
:100E5000C82B80910201C80FC093020160E087E0B7
:100E60000E94351760E086E00E94351760E085E05B
:100E70000E94351783B7817F83BF809164008160B2
:100E8000809364008091640080628093640080910C
:100E90006400886080936400809164008064809323
:100EA00064006091020187EA92E00E945F116DEA9E
:100EB0007CE087EA92E00E94721161E08FE00E947C
:100EC000351760E08FE00E94711726E040E051EE98
:100ED00060E070E08AE693E00E94EA1387EE91E01A
:100EE0000E94CC0D40EA56E861E070E087EE91E0A8
:100EF0000E94D60D82E691E00E943C0488E290E0D8
:100F00000E94C80482E691E00E943D04882311F00B
:100F100061E001C060E08FE00E94711780E0DF9126
:100F2000CF911F910F91FF90EF90DF90CF90BF90E6
:100F30000C94C90582E691E00C9438042F923F92FC
:100F40004F925F926F927F928F929F92AF92BF92D9
:100F5000CF92DF92EF92FF920F931F93CF93DF9385
:100F6000CDB7DEB764970FB6F894DEBF0FBECDBF26
:100F7000162F042F790119821A821B82860F911D68
:100F8000FC018081893609F460C008F5843609F4D3
:100F9000D6C038F4873409F423C2813609F4F9C184
:100FA00015C4873609F419C208F047C0863609F01F
:100FB0000DC41F5F68E171E08AE693E00E94471567
:100FC00053ECA52E51E0B52EC12CD12C7DC2833718
:100FD00009F458C050F4803709F4FBC0823709F493
:100FE00096C28D3609F0F2C3E0C0883709F4A3C277
:100FF0008A37C9F1863709F0E9C3E1E0E60FF0E08E
:10100000E258FE4F80818983CE0101960E94F1173C
:10101000982E0E94AC05E2E0E10FF0E0E258FE4FAE
:1010200080811D5F8983CE0101960E94F117A82E51
:1010300022242394F6E7BF2EF0C0413011F080E067
:1010400073C41F5F0E94DA04CAC34130C1F71F5F37
:1010500064EE71E08AE693E00E94181540E150E0EA
:1010600060910201B5C1413019F46EED71E0B3C376
:1010700085E0E8EDF1E0D90101900D928A95E1F764
:1010800085E052C40E94F2056093BF017093C001D5
:101090008093C1019093C201013009F04BC0E12C53
:1010A000F12C0E2DE11003C063ED71E009C0083092
:1010B00019F46AEC71E004C0003131F461EC71E0C4
:1010C0008AE693E00E9418154091BF015091C0013B
:1010D0006091C1017091C2010E2C04C07695679594
:1010E000579547950A94D2F7417055276627772779
:1010F0002AE030E08AE693E00E94B415802F877FD3
:10110000873041F0073131F06FEB71E08AE693E010
:101110000E941815FFEFEF1AFF0A28E1E216F1040A
:1011200009F0BFCF1F5F65E571E08AE693E00E949A
:10113000591555C36170F701608388E1F5C3E1E09B
:10114000E60FF0E0E258FE4F80818983E2E0E60F8F
:10115000F0E0E258FE4F80818A83E3E0E60FF0E0A2
:10116000E258FE4F80811C5F8B83CE0101960E9466
:10117000F1178538F3E09F0738F5909304018093C9
:101180000301013009F05BCF68EB71E08AE693E080
:101190000E94181560910301709104014AE050E02B
:1011A0008AE693E00E94E0151AC3E1E0E60FF0E062
:1011B000E258FE4F80811E5F8983CE0101960E9416
:1011C000F117833008F4C5C0013009F4FCC28FEF79
:1011D000ABC3E1E0E60FF0E0E258FE4F8081898387
:1011E000CE0101960E94F117982E0E94AC05E2E014
:1011F000E10FF0E0E258FE4FB0800E94AC05E3E062
:10120000E10FF0E0E258FE4F80811C5F8983CE0140
:1012100001960E94F117A82E212C8FEF890D88309E
:1012200008F0CEC221E02A1508F4CAC28FE98B0D5E
:10123000823018F036E7B312C3C28091BE0181300C
:1012400049F480E00E94C905809103019091040156
:101250000E94C80441E6B41208C0892D90E0FC0148
:10126000E45FFE4F7F016A2D14C0F2E6BF1206C094
:10127000892D90E09C012C5F3E4F08C0F6E7BF121D
:1012800013C0892D90E09C012C5E3E4F79016A2DA0
:10129000F90180810E945806F701C080D12CE12C11
:1012A000F12C3324339404C0C12CD12C7601312C81
:1012B0008091BE01823019F00130F9F0C0CE8091EA
:1012C0000301909104010E94C804412C512C320169
:1012D000C414D504E604F70421F060E0842D0E94D4
:1012E0005806FFEF4F1A5F0A6F0A7F0A28E142167D
:1012F00051046104710461F7DFCF332009F463C244
:10130000222019F06FEA71E002C069EA71E08AE612
:1013100093E00E9418154AE050E0692D8AE693E0B8
:101320000E94C11521100BC06EE971E08AE693E0BE
:101330000E9418156B2D8AE693E00E947B1365E9E5
:1013400071E08AE693E00E9418154AE050E06A2DA9
:101350003FC08093BE010130C1F46FE871E08AE6BE
:1013600093E00E9418158091BE01811103C06BE8C3
:1013700071E031C2813019F467E871E02CC282302B
:1013800009F02DC263E871E026C2F701808381E095
:10139000CBC2E1E0E60FF0E0E258FE4F80811E5F35
:1013A0008983CE0101960E94F117F82EF1E0F8171B
:1013B00008F40ACF0E94C905013009F040CE6EE75B
:1013C00071E08AE693E00E9418154AE050E06F2D24
:1013D0008AE693E00E94C81502C2AA24A39401C021
:1013E000A12CE1E0E10FF0E0E258FE4F808189831B
:1013F000CE0101960E94F1177C010E94AC05E2E04B
:10140000E10FF0E0E258FE4F80818983CE01019622
:101410000E94F1176C010E94AC05E4E0BE2EB10EF3
:101420008FEF8E0D893008F0DCC18FEF8C0D883086
:1014300008F0D7C11D5FE12FF0E0E258FE4F1081A8
:10144000113609F4D5C1123609F4D4C1163709F0A2
:10145000C8C1D2C138E0E316F10409F44EC040E13E
:10146000E416F10409F449C063E071E08AE693E010
:101470000E941815F50180819181A281B3810E2C03
:1014800004C0B695A795979587950A94D2F780FFE3
:101490003BC061E071E08AE693E00E941815FFEF1F
:1014A000EF1AFF0A28E1E216F104A1F66DEF70E0F1
:1014B0008AE693E00E94471534E0A30EB11C49E090
:1014C000C416D10409F48BC161E171E08AE693E0AE
:1014D0000E9418152FEFC21AD20A4AE050E0B60156
:1014E0008AE693E00E943A166FE071E08AE693E0A4
:1014F0000E941815E12CF12CADCF65E071E08AE671
:1015000093E00E941815B0CF6FEF70E0C4CFE3EC0A
:10151000F1E087EE91E011921192119211928E17E3
:101520009F07C9F70E947906013009F088CD1F5F37
:101530006EEE70E050C1E1E0E60FF0E0E258FE4FE1
:1015400080818983CE0101960E94F1174C010E948F
:10155000AC05E2E0E10FF0E0E258FE4F80811D5F54
:101560008983CE0101960E94F1178C838FEF880D3D
:10157000893008F025C15C81523008F021C180918A
:10158000BE01813049F480E00E94C90580910301C9
:10159000909104010E94C80485E191E09C878B87AB
:1015A000E5E0F1E0F887EF832DE031E03E832D8325
:1015B0003E872D87F88BEF87E5E1F1E0FA87E98731
:1015C000212C312CC12CD12C7601C4019927880FF4
:1015D000991F880F991F9C0121543E4F3A8B298BEC
:1015E000412C512C320143943C8B2B8BE989FA8995
:1015F00080819181A281B381022C04C0B695A79508
:10160000979587950A94D2F780FF14C06C81ED8579
:10161000FE8580810E945806D301C201022C04C0BD
:10162000880F991FAA1FBB1F0A94D2F7C82AD92A6C
:10163000EA2AFB2A5101F8E0AF0EB11CEB89FC89C4
:1016400080819181A281B3810A2C04C0B695A795AF
:10165000979587950A94D2F780FF13C06C81EF8528
:10166000F88980810E945806D301C20104C0880F06
:10167000991FAA1FBB1FAA94D2F7C82AD92AEA2AFF
:10168000FB2A5101F0E1AF0EB11CEB89FC8980818E
:101690009181A281B3810A2C04C0B695A795979534
:1016A00087950A94D2F780FF13C06C81E985FA858B
:1016B00080810E945806D301C20104C0880F991F7F
:1016C000AA1FBB1FAA94D2F7C82AD92AEA2AFB2A42
:1016D000FFEF2F1A3F0A29853A852F5F3F4F3A8740
:1016E00029874F8558894F5F5F4F588B4F878D856E
:1016F0009E8501969E878D8798E02916310409F012
:1017000075CF8091BE01823009F0F4C08091030151
:10171000909104010E94C804A12CB12CD701C601EC
:101720000A2C04C0B695A795979587950A94D2F789
:1017300080FD06C060E0ED81FE8180810E94580638
:10174000C5010896A701960104C05695479537959F
:1017500027958A95D2F720FD06C060E0EF81F885D5
:1017600080810E945806C5014096A701960104C0D9
:1017700056954795379527958A95D2F720FD06C04F
:1017800060E0EB85FC8580810E945806FFEFAF1A70
:10179000BF0A2B853C852F5F3F4F3C872B874F81AE
:1017A00058854F5F5F4F58874F838D819E8101968B
:1017B0009E838D8398E0A916B10409F0AFCF9AC03B
:1017C000013009F03CCC0E94A60509C0013009F0A7
:1017D000FECC6EEC70E08AE693E00E944715812F04
:1017E000A3C0013009F0F3CC0E94A6051B2DF7CF52
:1017F00080E003C088E001C080E197013327A601A3
:10180000552790E0AA20F9F0220F331F220F331F33
:10181000F901E154FE4F480F591F4150510981E031
:1018200090E0A0E0B0E004C0880F991FAA1FBB1F82
:101830004A95D2F74081518162817381842B952B27
:10184000A62BB72B22C0220F331F220F331FF90103
:10185000E154FE4F480F591F4150510981E090E07B
:10186000A0E0B0E004C0880F991FAA1FBB1F4A95D3
:10187000D2F780959095A095B09540815181628175
:10188000738184239523A623B72380839183A28326
:10189000B3830E947906013009F0D1CB67E771E08C
:1018A0008AE693E00E9418154AE050E06E2D8AE621
:1018B00093E00E94C1156FE671E08AE693E00E9412
:1018C00018154AE050E06C2D8AE693E00E94C1159D
:1018D00064E671E08AE693E00E941815612F8AE6BB
:1018E00093E00E947B1365E571E08AE693E00E9435
:1018F00059157CCF013009F0A2CB67EE70E08AE683
:1019000093E00E9418154AE050E0682D8AE693E0C3
:101910000E94C1156EED70E08AE693E00E941815F2
:101920004AE050E06C8154CD64960FB6F894DEBF67
:101930000FBECDBFDF91CF911F910F91FF90EF9020
:10194000DF90CF90BF90AF909F908F907F906F90DF
:101950005F904F903F902F900895EF92FF920F93DA
:101960001F93CF93DF937C0106E611E0C0E0D0E047
:10197000CE15DF059CF4C831D105F4F487EA92E076
:101980000E948710892BC1F087EA92E00E948F1095
:10199000F801808321960F5F1F4FEACF20E030E0EF
:1019A00042E060E086E691E0DF91CF911F910F91D8
:1019B000FF90EF900C949E0787EA92E00E948F10B0
:1019C000E9CFCF93DF9380E4EEE7F1E0DF011D92F2
:1019D0008A95E9F7C0E0D0E08AE693E00E94FD1224
:1019E000892B91F08AE693E00E941713C82F8F3F4E
:1019F00059F0682F8AE693E00E947B13ED2FF0E008
:101A0000E258FE4FC083DF5F0E94AC05CD3021F06D
:101A1000CA3011F0D03400F365E571E08AE693E056
:101A20000E94591560E08FE00E9471178EE190E0EE
:101A30000E94C80460E020E030E041E08EE791E0E1
:101A40000E949E0761E0680FE82FF0E0E258FE4F29
:101A500080818C3281F361E08FE0DF91CF910C9433
:101A6000711780E090E008958091170290E0209136
:101A70001802821B91090895909118028091170213
:101A8000981750F4E92FF0E0E75EFD4F208130E039
:101A90009F5F9093180202C02FEF3FEFC901089596
:101AA000E091180280911702E81730F4F0E0E75E49
:101AB000FD4F808190E008958FEF9FEF0895089586
:101AC000CF92DF92EF92FF920F931F93CF93DF930A
:101AD0007C01CB018A012091F301222389F0EB01E3
:101AE0006B01C40ED51ECC15DD0569F06991D701D7
:101AF000ED91FC910190F081E02DC7010995F3CFA4
:101B0000642F0E94310FC801DF91CF911F910F9177
:101B1000FF90EF90DF90CF900895CF93DF931F92C7
:101B2000CDB7DEB769832091F3012223D1F0209154
:101B3000F401203240F021E030E0FC0133832283C5
:101B400080E090E015C08091F501E82FF0E0EA50C8
:101B5000FE4F998190838F5F8093F5018093F4010C
:101B600005C061E0CE0101960E94310F81E090E056
:101B70000F90DF91CF910895FC011382128288EEBD
:101B800093E0A0E0B0E084839583A683B78381E2ED
:101B900091E09183808308951092180210921702A9
:101BA0001092F5011092F4010C94750E9A01AB019C
:101BB00060E072E18AE790E00E94C917DA01C9018A
:101BC0004097A109B109B695A795979587958093F8
:101BD000D800089581E08093F3016093160210927B
:101BE000F5011092F40108950F93062F21E0409122
:101BF000F40166EF71E0809116020E94DB0E1092F4
:101C0000F5011092F4011092F3010F9108954F9293
:101C10005F926F927F92AF92BF92CF92EF92FF92BC
:101C20000F931F93CF93DF935C01F62ED42F2801DF
:101C30003901EE2021F10E94EA0DCE2DC43008F0CA
:101C4000C3E0C150C0F028E0C29FC0011124A3012D
:101C5000920104C056954795379527958A95D2F7F6
:101C6000CA01B901D501ED91FC910190F081E02DFF
:101C7000C5010995E6CF60E0C5010E94F40D4D2F26
:101C8000D13208F040E22C2D69E172E08F2D0E94E4
:101C9000930E1092180280931702DF91CF911F913B
:101CA0000F91FF90EF90CF90BF90AF907F906F908B
:101CB0005F904F900895CF92EF920F931F93C22E93
:101CC000E12C00E010E098010E94070E1F910F9197
:101CD000EF90CF90089521E00C945B0E61E00C949E
:101CE000F40D87EE91E00C94BC0D1092A60281E0F9
:101CF0008093A4021092A30261E086E10E94711712
:101D000061E087E10E947117E9EDF0E080818E7F4C
:101D1000808380818D7F808380E28093D80085E4FA
:101D20008093DC000895413208F043C09091A602F0
:101D30009111FCCF91E09093A6022093A4022FEF83
:101D40002093390210927E02240F20937D029093FB
:101D5000A5029091A502880F892B8093A5028091FE
:101D6000A302813061F41092A3028091A5028093B6
:101D7000DB008091DC0083FDF8CF85EC01C085EEAF
:101D80008093DC008091A6028130E1F380917E0295
:101D9000841710F440917E02AFE7B2E0962FFB016A
:101DA0008E2F891B841718F48D918193F9CF842F7E
:101DB000089580E008950F93413208F04AC0909151
:101DC000A6029111FCCF32E03093A6020093A40248
:101DD0003FEF3093390210927E0240937D02562FDE
:101DE000AFE7B2E0FB013E2F351B341718F43191F9
:101DF0003D93F9CF1092A5023091A502880F832B55
:101E00008093A5028091A302813061F41092A30215
:101E10008091A5028093DB008091DC0083FDF8CFE8
:101E200085EC01C085EE8093DC00222321F08091B7
:101E3000A6028230D1F3809139028F3F79F08091F0
:101E40003902803241F080913902803331F094E0E0
:101E500005C091E003C092E001C093E0892F0F918B
:101E60000895613298F42091A602243089F4609399
:101E70005B02282FADE5B2E0FC018E2F821B861796
:101E800018F481918D93F9CF80E0089581E0089551
:101E900082E0089585ED8093DC008091DC0084FD74
:101EA000FCCF1092A602089585EC8093DC0010927E
:101EB000A60208951F920F920FB60F9211242F932E
:101EC0003F934F935F936F937F938F939F93AF93C2
:101ED000BF93EF93FF938091D900887F803609F4F8
:101EE0009EC078F5883209F45DC090F4803109F421
:101EF00056C038F4882309F4F5C0883009F44FC07F
:101F0000F5C0883109F44EC0803209F45FC0EEC0DC
:101F1000803409F46AC058F4803309F457C0883318
:101F200009F0E4C0809339020E94540FDFC080356D
:101F300009F44FC0883509F45DC0883409F0D6C073
:101F4000D3C0883909F4C4C0A8F4883709F467C03D
:101F500038F4883609F463C0803709F460C0C6C01D
:101F6000883809F4B5C0803909F45FC0803809F0B9
:101F7000BDC05BC0803B09F483C038F4803A09F4EB
:101F800066C0883A09F47CC0B1C0803C09F4A4C0A2
:101F9000883C09F4A1C0883B09F487C0A7C08091A0
:101FA000A50210C090917E0280917D02981770F575
:101FB000E0917E0281E08E0F80937E02F0E0E15896
:101FC000FD4F80818093DB0085EC83C080933902D4
:101FD0008BC0E0917E0281E08E0F80937E02809123
:101FE000DB00F0E0E158FD4F808390917E0280910C
:101FF0007D026BC0E0917E0281E08E0F80937E02B5
:102000008091DB00F0E0E158FD4F80838091A402D5
:1020100081116AC081E08093A30284EA5EC083E0FC
:102020008093A60210923A02CFCF80913A0280327A
:1020300008F04EC0E0913A0281E08E0F80933A02A0
:102040008091DB00F0E0E55CFD4F8083BDCF0E9416
:10205000540F80913A02803230F4E0913A02F0E07D
:10206000E55CFD4F108260913A0270E0E0919F02C2
:10207000F091A0028BE392E0099510923A0236C0EB
:1020800084E08093A60210925C0210925B02E091C1
:10209000A102F091A202099580915B02811105C015
:1020A00081E080935B0210925D02E0915C0281E02E
:1020B0008E0F80935C02F0E0E35AFD4F80818093A5
:1020C000DB0090915C0280915B02981708F47CCF52
:1020D00085E88093DC000AC085EC8093DC001092D8
:1020E000A60204C0109239020E944A0FFF91EF919C
:1020F000BF91AF919F918F917F916F915F914F9120
:102100003F912F910F900FBE0F901F9018958091C7
:10211000DA0290E02091DB02821B910908959091F0
:10212000DB028091DA02981750F4E92FF0E0E452D4
:10213000FD4F208130E09F5F9093DB0202C02FEFC4
:102140003FEFC9010895E091DB028091DA02E817C0
:1021500030F4F0E0E452FD4F808190E008958FEF7D
:102160009FEF08950895CF93DF93EC01E091B302C0
:10217000F091B4023097F1F09091DB028091DA0295
:102180009817C0F090E0292F30E02617370754F455
:10219000DE01A20FB31F4C91D901A452BD4F4C9345
:1021A0009F5FF1CF1092DB026093DA02CB01DF91E7
:1021B000CF910994DF91CF910895E091B502F0910C
:1021C000B602309729F01092B9021092B802099421
:1021D0000895CF92DF92EF92FF920F931F93CF93C8
:1021E000DF937C01CB018A012091B702222389F081
:1021F000EB016B01C40ED51ECC15DD0569F06991AC
:10220000D701ED91FC910190F081E02DC701099576
:10221000F3CF642F0E949D11C801DF91CF911F91D0
:102220000F91FF90EF90DF90CF900895CF93DF93C1
:102230001F92CDB7DEB769832091B7022223D1F078
:102240002091B802203240F021E030E0FC013383DD
:10225000228380E090E015C08091B902E82FF0E081
:10226000E654FD4F998190838F5F8093B9028093EC
:10227000B80205C061E0CE0101960E949D1181E087
:1022800090E00F90DF91CF910895FC0113821282AC
:1022900088EE93E0A0E0B0E084839583A683B783C3
:1022A00083E391E09183808308951092DB02109282
:1022B000DA021092B9021092B8020C947B11CF93FB
:1022C000DF93EC01862F0E9499118DED90E10E9421
:1022D000BB1183EB90E10E94B611CE01DF91CF914B
:1022E0000C9455117093B4026093B302089587EA79
:1022F00092E00C9445111092690381E0809367038A
:102300001092660361E082E10E94711761E083E14F
:102310000E947117E9EBF0E080818E7F80838081DD
:102320008D7F808380E28093B80085E48093BC0039
:102330000895880F8093BA000895613298F420912F
:102340006903243089F460931E03282FA0E2B3E0D0
:10235000FC018E2F821B861718F481918D93F9CF83
:1023600080E0089581E0089582E0089590936303EA
:1023700080936203089590936503809364030895A6
:1023800085ED8093BC008091BC0084FDFCCF109251
:102390006903089585EC8093BC0010926903089549
:1023A0001F920F920FB60F9211242F933F934F93CA
:1023B0005F936F937F938F939F93AF93BF93EF93AD
:1023C000FF938091B900887F803609F49EC078F52C
:1023D000883209F45DC090F4803109F456C038F4B5
:1023E000882309F4F5C0883009F44FC0F5C088315E
:1023F00009F44EC0803209F45FC0EEC0803409F4A5
:102400006AC058F4803309F457C0883309F0E4C037
:102410008093FC020E94CA11DFC0803509F44FC0CE
:10242000883509F45DC0883409F0D6C0D3C0883936
:1024300009F4C4C0A8F4883709F467C038F48836B2
:1024400009F463C0803709F460C0C6C0883809F455
:10245000B5C0803909F45FC0803809F0BDC05BC0E9
:10246000803B09F483C038F4803A09F466C0883AA6
:1024700009F47CC0B1C0803C09F4A4C0883C09F4D4
:10248000A1C0883B09F487C0A7C08091680310C031
:102490009091410380914003981770F5E0914103BA
:1024A00081E08E0F80934103F0E0EE5BFC4F808172
:1024B0008093BB0085EC83C08093FC028BC0E091CD
:1024C000410381E08E0F809341038091BB00F0E0D7
:1024D000EE5BFC4F808390914103809140036BC081
:1024E000E091410381E08E0F809341038091BB0016
:1024F000F0E0EE5BFC4F80838091670381116AC03E
:1025000081E08093660384EA5EC083E08093690380
:102510001092FD02CFCF8091FD02803208F04EC0B4
:10252000E091FD0281E08E0F8093FD028091BB005F
:10253000F0E0E250FD4F8083BDCF0E94CA11809130
:10254000FD02803230F4E091FD02F0E0E250FD4FF8
:1025500010826091FD0270E0E0916203F0916303EC
:102560008EEF92E009951092FD0236C084E08093D0
:10257000690310921F0310921E03E0916403F0910F
:102580006503099580911E03811105C081E0809348
:102590001E0310922003E0911F0381E08E0F8093B1
:1025A0001F03F0E0E05EFC4F80818093BB009091C0
:1025B0001F0380911E03981708F47CCF85E8809351
:1025C000BC000AC085EC8093BC001092690304C073
:1025D0001092FC020E94C011FF91EF91BF91AF9148
:1025E0009F918F917F916F915F914F913F912F912B
:1025F0000F900FBE0F901F901895FC01918D228DAA
:10260000892F90E0805C9F4F821B91098F739927DF
:102610000895FC01918D828D981731F0828DE80F1D
:10262000F11D858D90E008958FEF9FEF0895FC01D7
:10263000918D828D981761F0828DDF01A80FB11DF9
:102640005D968C91928D9F5F9F73928F90E008951D
:102650008FEF9FEF0895FC01538D448D252F30E0BF
:10266000842F90E0821B930B541710F0CF9608959F
:102670000197089582EA94E1892B41F080E090E08F
:10268000892B21F00E94A21481110DC080E090E0FE
:10269000892B71F080E090E0892B51F00E940000BE
:1026A000811104C008950E940000F0CF0C94000036
:1026B0000895FC01848DDF01A80FB11DA35ABF4FFF
:1026C0002C91848D90E001968F739927848FA68931
:1026D000B7892C93A089B1898C91837080648C9385
:1026E000938D848D981306C00288F389E02D808134
:1026F0008F7D80830895EF92FF920F931F93CF9366
:10270000DF93EC0181E0888F9B8D8C8D981305C041
:10271000E889F989808185FD26C0F62E0B8D10E0B1
:102720000F5F1F4F0F731127E02E8C8DE8120CC026
:102730000FB607FCFACFE889F989808185FFF5CFCC
:10274000CE010E945913F1CF8B8DFE01E80FF11DD0
:10275000E35AFF4FF0829FB7F8940B8FEA89FB8909
:10276000808180620AC09FB7F894EE89FF896083F8
:10277000E889F98980818370806480839FBF81E0CC
:1027800090E0DF91CF911F910F91FF90EF9008950E
:10279000CF93DF93EC01888D8823C9F0EA89FB8908
:1027A000808185FD05C0A889B9898C9186FD0FC0FF
:1027B0000FB607FCF5CF808185FFF2CFA889B989D4
:1027C0008C9185FFEDCFCE010E945913E7CFDF91A9
:1027D000CF910895CF92DF92EF92FF921F93CF9304
:1027E000DF93EC016A017B01122F60E874E88EE14F
:1027F00090E0A70196010E94C917DA01C90101976B
:10280000A109B109B695A795979587959C01E88987
:10281000F98982E08083211580E13807A8F0E889F2
:10282000F989108260E472E48FE090E0A7019601DC
:102830000E94C917DA01C9010197A109B109B6952A
:10284000A795979587959C01EC85FD853083EE854E
:10285000FF852083188EEC89FD891083EA89FB8926
:10286000808180618083EA89FB89808188608083A0
:10287000EA89FB89808180688083EA89FB8980817D
:102880008F7D8083DF91CF911F91FF90EF90DF903C
:10289000CF9008951F920F920FB60F9211242F938D
:1028A0008F939F93EF93FF93E0917A03F0917B03D3
:1028B0008081E0918003F091810382FD12C09081BC
:1028C000809183038F5F8F7320918403821751F06F
:1028D000E0918303F0E0E659FC4F958F80938303EA
:1028E00001C08081FF91EF919F918F912F910F9067
:1028F0000FBE0F901F9018951F920F920FB60F9258
:1029000011242F933F934F935F936F937F938F93F4
:102910009F93AF93BF93EF93FF938AE693E00E9458
:102920005913FF91EF91BF91AF919F918F917F913B
:102930006F915F914F913F912F910F900FBE0F902C
:102940001F9018958AE693E00E94FD1221E0892BE2
:1029500009F420E0822F0895EAE6F3E01382128260
:1029600088EE93E0A0E0B0E084839583A683B783EC
:1029700085E491E09183808385EC90E0958784875E
:1029800084EC90E09787868780EC90E0918B808B39
:1029900081EC90E0938B828B82EC90E0958B848B22
:1029A00086EC90E0978B868B118E128E138E148E90
:1029B0000895CF92DF92EF92FF920F931F93CF93E0
:1029C000DF936C017A018B01C0E0D0E0CE15DF050A
:1029D00081F0D8016D918D01D601ED91FC910190AE
:1029E000F081E02DC6010995892B11F02196EECFDB
:1029F0007E01C701DF91CF911F910F91FF90EF9062
:102A0000DF90CF9008956115710579F0FB01019079
:102A10000020E9F73197AF01461B570BDC01ED9120
:102A2000FC910280F381E02D099480E090E008950C
:102A3000EF92FF920F931F93CF93DF938C017B0153
:102A4000C0E0D0E0F701EC0FFD1F6491662361F058
:102A5000D801ED91FC910190F081E02DC80109951C
:102A6000892B11F02196EECFCE01DF91CF911F91EE
:102A70000F91FF90EF900895DC01ED91FC91019092
:102A8000F081E02D099463E571E00C9403150F9338
:102A90001F93CF93DF93EC010E9418158C01CE0198
:102AA0000E944315800F911FDF91CF911F910F91CD
:102AB00008950F931F93CF93DF93EC010E940315AA
:102AC0008C01CE010E944315800F911FDF91CF91A1
:102AD0001F910F9108958F929F92AF92BF92EF92A4
:102AE000FF920F931F93CF93DF93CDB7DEB7A197DC
:102AF0000FB6F894DEBF0FBECDBF7C01FA01CB014B
:102B000019A2223008F42AE08E010F5D1F4F822E99
:102B1000912CA12CB12CBF01A50194010E94C917D1
:102B2000F901CA01015011096A3014F4605D01C055
:102B3000695CD8016C93232B242B252B61F7B801FA
:102B4000C7010E940315A1960FB6F894DEBF0FBE11
:102B5000CDBFDF91CF911F910F91FF90EF90BF906C
:102B6000AF909F908F9008952115310541F4DC01BD
:102B7000ED91FC910190F081E02D642F09940C946B
:102B80006B159A01462F50E060E070E00C94B4158C
:102B90000F931F93CF93DF93EC010E94C1158C011B
:102BA000CE010E944315800F911FDF91CF911F919D
:102BB0000F9108959A01AB0160E070E00C94B41598
:102BC0000F931F93CF93DF93EC010E94DA158C01D2
:102BD000CE010E944315800F911FDF91CF911F916D
:102BE0000F910895CF92DF92EF92FF920F931F9370
:102BF000CF93DF932115310581F4DC01ED91FC9138
:102C00000190F081E02D642FDF91CF911F910F9102
:102C1000FF90EF90DF90CF9009942A30310501F5B5
:102C200077FF1DC06A017B01EC016DE20E943C153B
:102C30008C0144275527BA014C195D096E097F099B
:102C40002AE0CE010E946B15800F911FDF91CF917A
:102C50001F910F91FF90EF90DF90CF9008952AE0A1
:102C6000DF91CF911F910F91FF90EF90DF90CF9068
:102C70000C946B159A01AB01770F660B770B0C94D4
:102C8000F21508950E94A7160E9441160E94CD06D3
:102C9000CAE3D3E10E94E10C2097E1F30E943A13CA
:102CA000F9CF1F920F920FB60F9211242F933F93DB
:102CB0008F939F93AF93BF938091080490910904E1
:102CC000A0910A04B0910B043091070426E0230F71
:102CD0002D3720F40296A11DB11D05C029E8230F50
:102CE0000396A11DB11D20930704809308049093BF
:102CF0000904A0930A04B0930B0480910C049091F2
:102D00000D04A0910E04B0910F040196A11DB11DF8
:102D100080930C0490930D04A0930E04B0930F04C1
:102D2000BF91AF919F918F913F912F910F900FBEC7
:102D30000F901F9018952FB7F89460910804709128
:102D4000090480910A0490910B042FBF0895789490
:102D500084B5826084BD84B5816084BD85B58260A0
:102D600085BD85B5816085BDEEE6F0E0808181603E
:102D70008083E1E8F0E0108280818260808380813E
:102D800081608083E0E8F0E0808181608083E1EB16
:102D9000F0E0808184608083E0EBF0E080818160FE
:102DA0008083E1E9F0E080818260808380818160BE
:102DB0008083E0E9F0E0808181608083E1EAF0E0F7
:102DC000808182608083808181608083E0EAF0E09E
:102DD000808181608083EAE7F0E080818460808385
:102DE00080818260808380818E7F80838081806803
:102DF00080831092C100089590E0FC013197ED307E
:102E0000F10590F5E65AFF4F0C94EB178091800086
:102E10008F7703C0809180008F7D8093800008951C
:102E200084B58F7702C084B58F7D84BD089580916D
:102E3000B0008F7703C08091B0008F7D8093B00089
:102E40000895809190008F7703C0809190008F7DCE
:102E50008093900008958091A0008F7703C08091A7
:102E6000A0008F7D8093A0000895CF93DF9390E022
:102E7000FC01E85EFA4F2491FC01E05DFA4F849179
:102E8000882361F190E0880F991FFC01E05AFA4F06
:102E9000C591D491FC01EC5AFA4FA591B4916111FE
:102EA00009C09FB7F8948881209582238883EC918C
:102EB0002E230BC0623061F49FB7F8948881322FC3
:102EC000309583238883EC912E2B2C939FBF06C0D3
:102ED0008FB7F894E8812E2B28838FBFDF91CF9195
:102EE00008951F93CF93DF93282F30E0F901E0502E
:102EF000FB4F8491F901E85EFA4FD491F901E05D4E
:102F0000FA4FC491CC23C1F0162F81110E94FC16F8
:102F1000EC2FF0E0EE0FFF1FEC5AFA4FA591B491A1
:102F20009FB7F894111104C08C91D095D82302C09A
:102F3000EC91DE2BDC939FBFDF91CF911F91089521
:102F4000CF93DF93282F30E0F901E050FB4F8491BD
:102F5000F901E85EFA4FD491F901E05DFA4FC491AE
:102F6000CC2391F081110E94FC16EC2FF0E0EE0FC3
:102F7000FF1FE85BFA4FA591B491EC91ED2381E03E
:102F800090E021F480E002C080E090E0DF91CF91FA
:102F90000895A1E21A2EAA1BBB1BFD010DC0AA1F9A
:102FA000BB1FEE1FFF1FA217B307E407F50720F0B2
:102FB000A21BB30BE40BF50B661F771F881F991F2D
:102FC0001A9469F760957095809590959B01AC0176
:102FD000BD01CF010895EE0FFF1F0590F491E02D84
:102FE0000994FC0188279927E89421912032E9F37C
:102FF000293010F02E30C8F32B3241F02D3239F445
:10300000689404C00E940F18820F911D21912053D3
:103010002A30C0F31EF4909581959F4F08957AE071
:10302000979F902D879F802D910D11240895F999D8
:10303000FECF92BD81BDF89A992780B50895262FBD
:10304000F999FECF1FBA92BD81BD20BD0FB6F8948D
:0E305000FA9AF99A0FBE01960895F894FFCFF0
:10305E00E80350C800161412100E0C0A08171513A8
:10306E00110F0D0B090001020304050607000000F5
:10307E00008D0D600D310D5F0D340D3C0D500D00AA
:10308E000000001611E910310DB21087108F10A339
:10309E0010000000007B13D9142B13C813FD121758
:1030AE001309130D0A006E616E00696E66006F766D
:0230BE006600AA
:00000001FF
