:100000000C94BA020C94E2020C94E2020C94E20208
:100010000C94E2020C94E2020C94E2020C94E202D0
:100020000C94E2020C94E2020C94E2020C94E202C0
:100030000C94E2020C94E2020C94E2020C94E202B0
:100040000C9486160C94E2020C947F140C94B11458
:100050000C94E2020C94E2020C94E2020C94E20290
:100060000C9405120C94E2020C94E2020C94E2024D
:100070000C94E2020C94E2020C94E2020C94E20270
:100080000C94E2020C94E2020C94E2020C94E20260
:100090000C94E2020C94E2020C94E2020C94E20250
:1000A0000C948A0F0C94E2020C94E2020C94E2028B
:1000B0000C94E202451748173B173F176917691759
:1000C0004C17501756175A17691760176417756E33
:1000D0006B6E6F776E20636F6D6D616E64002C20A8
:1000E00073746174653A0067726F75703A00677275
:1000F0006F75707320636C6561726564007C0020AD
:100100000078007C007C202020202020202000205F
:100110000067726F75702000636861207074202022
:100120007C317C327C337C347C357C367C377C384B
:100130007C20636862207074207C317C327C337C4C
:10014000347C357C367C377C387C20766363207049
:1001500074207C317C327C337C347C357C367C373B
:100160007C387C002C206368616E6E656C3A002CD4
:1001700020706F72743A0067726F75703A00616C2C
:100180006C3A006D62620062626D006D616E006DBE
:100190006F64653A002C2073746174653A002C20FA
:1001A0006368616E6E656C3A00706F72743A0076C7
:1001B0006363706F72743A0064656C61793A002C05
:1001C0000020706F72745F623A0020706F72745F0B
:1001D000613A007663633A0076315F313000763100
:1001E0005F3130006932635F616464723A20307855
:1001F00000636F6D6D616E64206572726F72006373
:100200006861696E20202020202D20652E672E2019
:100210007631312C763231202D706F727420312C72
:100220003220766363206F6E202836342063686145
:1002300072732900313D627265616B2D62342D6DE0
:10024000616B652C323D6D616B652D62342D627280
:1002500065616B29006D203D6D6F64652028303D20
:100260006D616E20746F67676C652C0029006720D4
:100270003D67726F7570206E756D626572202831F2
:100280002D0063203D6368616E6E656C2028612FD0
:10029000622F763D766363290070203D706F727423
:1002A0002028312D3829005B6F7074696F6E735D83
:1002B000202D2073203D73746174652028313D6FBB
:1002C0006E2F303D6F666629007A20202020202086
:1002D0002020202D20636865636B2066772076657B
:1002E000727300645B6D735D20202020202D206DD3
:1002F0006F6465207377697463682064656C6179E5
:10030000206D733C3D39303000652E672E206D31F5
:10031000202D7365742062626D006D5B6D5D202021
:10032000202020202D20736574206F706572617409
:1003300065206D6F64650072202020202020202021
:10034000202D2072657365742067726F757073005D
:10035000662020202020202020202D20676574206A
:1003600067726F7570206D617000652E672E207842
:100370003231202D67726F75702032206F6E0078D9
:100380005B675D5B735D2020202D207365742067A3
:10039000726F757000475B675D5B705D5B635D2DC1
:1003A0002072656D6F766520706F72742066726F53
:1003B0006D2067726F757000652E672E2067323171
:1003C00062202D61646420706F727420312D622070
:1003D000746F2067726F7570203200675B675D5BBA
:1003E000705D5B635D2D2061646420706F727420AA
:1003F000746F2067726F757000732020202020209A
:100400002020202D2067657420706F727420616E2B
:1004100064207663632073746174657300652E676E
:100420002E20763231202D706F7274203220766348
:1004300063206F6E00765B705D5B735D2020202D06
:1004400020736574207663632C20616C742E207495
:100450006F20705B705D765B735D00652E672E208C
:1004600070326131202D706F7274203220636861A8
:100470006E6E656C2061206F6E00705B705D5B63FB
:100480005D5B735D2D2073657420706F7274006501
:100490002E672E206131202D616C6C20706F72747C
:1004A00073206F6E00615B735D2020202020202D63
:1004B0002073657420616C6C20706F7274730069B6
:1004C0002020202020202020202D207072696E7492
:1004D00020626F6172642061646472006820202071
:1004E0002020202020202D207072696E74206D65E0
:1004F0006E75002020202020202020202020200099
:10050000090C0D08000201000003040700000000B0
:1005100000000000000000000102040810204080DC
:10052000010204081020010204081020040801023E
:100530000404040404040404020202020202030389
:100540000303030305050505000000002300260042
:1005500029002C0000000000250028002B002E00A0
:1005600000000000240027002A002D00A007A10E93
:10057000AC11E11411241FBECFEFD8E0DEBFCDBF18
:1005800011E0A0E0B1E0E8ECF0E302C005900D92CC
:10059000A236B107D9F723E0A2E6B1E001C01D926F
:1005A000AA3EB207E1F712E0CAEBD2E004C02197FD
:1005B000FE010E942018C63BD107C9F70E9477169A
:1005C0000C9462180C940000FF920F931F93CF932A
:1005D000DF93C62F142FF22E032F682F81EC91E0AA
:1005E0000E941A0E6C2F81EC91E00E94BD0DCF2D60
:1005F000D02FCE01810F911D8C01C017D10731F092
:10060000699181EC91E00E94BD0DF7CF81EC91E002
:100610000E949E0E91E0811190E0892FDF91CF9191
:100620001F910F91FF900895CF93DF931F92CDB745
:10063000DEB749839E012F5F3F4F41E00E94E402F5
:100640000F90DF91CF9108953F924F925F926F92FA
:100650007F928F929F92AF92BF92CF92DF92EF9252
:10066000FF920F931F93CF93DF9300D000D000D061
:10067000CDB7DEB7D82EC62E4D8379010E94D01695
:100680004B015C01312C1E829D81892F90E09C835F
:100690008B832801612C712CED813E16C8F56D2DE0
:1006A00081EC91E00E941A0E6C2D81EC91E00E9489
:1006B000BD0D81EC91E00E949E0E6D2D81EC91E0CC
:1006C0000E941A0E4B815C81431951094132510538
:1006D00014F040E250E06D2D81EC91E00E949B0E01
:1006E00081EC91E00E94640D892B09F443C001154F
:1006F000110569F10E94D016DC01CB018819990916
:10070000AA09BB0984159505A605B70500F132C0F5
:1007100001151105A9F10E94D016DC01CB01881941
:100720009909AA09BB0920E030E080179107A207C8
:10073000B30730F1FD812F2F30E04E81842F440F1D
:10074000990B82179307E4F48FEF8E8319C0F7019A
:100750002E81E20FF11D27FDFA95FA83E98381ECE2
:1007600091E00E946C0DE981FA818083FE81FF5F38
:10077000FE83B6CF8D81813208F080E2380E8CCFB7
:100780008E8126960FB6F894DEBF0FBECDBFDF91E7
:10079000CF911F910F91FF90EF90DF90CF90BF907E
:1007A000AF909F908F907F906F905F904F903F9011
:1007B00008950F931F9389019A0141E00E94240339
:1007C0001F910F910895DF92EF92FF920F931F9365
:1007D000CF93DF931F92CDB7DEB7D42E7901980166
:1007E000AE014F5F5F4F0E94D90321E030E001C0AE
:1007F000220FDA94EAF799812923F70120830F90D9
:10080000DF91CF911F910F91FF90EF90DF900895AE
:10081000EF92FF920F931F93CF93DF931F92CDB769
:10082000DEB7182F062FF42EE22E20910001309112
:100830000101AE014F5F5F4F0E94D903898141E002
:1008400050E001C0440FFA94EAF7EE2011F0482B73
:1008500002C0409548234983602F812F0E941403D2
:100860000F90DF91CF911F910F91FF90EF9008951E
:1008700022E2FC012083089508950F931F930091B5
:100880000001109101019C012F5F3F4F43E060E0A8
:10089000FC0180810E94240391E0833009F090E004
:1008A000892F1F910F9108950F931F93CF93DF937B
:1008B000EC0100910001109101019C012F5F3F4F5D
:1008C000462F477083E0769567958A95E1F76C5FD0
:1008D00088810E94E30381E09981911101C080E049
:1008E000DF91CF911F910F910895242F462F4770CC
:1008F00033E0769567953A95E1F76C5FFC0180816E
:100900000C940804FC016183428323839C012F5FC4
:100910003F4F43E064E880810C94E4020F931F93FF
:10092000CF93DF93EC0100910001109101019C0134
:100930002F5F3F4F462F477083E0769567958A95E6
:10094000E1F7645F88810E94E30381E0998191115E
:1009500001C080E0DF91CF911F910F910895242F66
:10096000462F477033E0769567953A95E1F7645FD7
:10097000FC0180810C940804FC0161834283238381
:100980009C012F5F3F4F43E06CE880810C94E402B0
:100990001816190644F4EFECF7E03197F1F700C0B0
:1009A00000000197F5CF089563EF74E084E493E0CD
:1009B0000C944D156CED74E084E493E00E947C157A
:1009C0006FEB74E084E493E00E947C1565EA74E0C8
:1009D00084E493E00E947C150E94D4046FE874E0E4
:1009E00084E493E00E947C156AE774E084E493E079
:1009F0000E947C150E94D4046BE574E084E493E0CB
:100A00000E947C1565E374E084E493E00E947C1509
:100A10000E94D4046DE174E084E493E00E947C15AC
:100A200069EF73E084E493E00E947C156BED73E062
:100A300084E493E00E947C150E94D40468EB73E088
:100A400084E493E00E947C1565E973E084E493E01C
:100A50000E947C156FE773E084E493E00E947C15AC
:100A60000E94D4046AE673E084E493E00E947C155B
:100A700060E573E084E493E00E947C1567E373E033
:100A800084E493E00E947C156AE173E084E493E0DF
:100A90000E947C150E94D40469E073E084E493E032
:100AA0000E947C1563EE72E084E493E00E947C1562
:100AB00069EC72E084E493E00E947C1567EA72E0DE
:100AC00084E493E00E947C150E94D40469E972E0FA
:100AD00084E493E00E947C150E94D40462E872E0F2
:100AE00084E493E00E947C150E94D4046EE672E0D8
:100AF00084E493E00E944D154AE050E069E070E024
:100B000084E493E00E946F166CE672E084E493E064
:100B10000E947C150E94D40465E572E084E493E0B1
:100B20000E947C150E94D40464E372E084E493E0A4
:100B30000E947C156FEF71E084E493E00E947C15C5
:100B400065E571E084E493E00C948E1561EF71E04B
:100B500084E493E00C947C1585E090E00C94C80448
:100B6000FF920F931F93CF93DF93EC01F62E088132
:100B70001981C8010E944C18F81621F06F2DC80188
:100B80000E945418CE01DF91CF911F910F91FF90D9
:100B9000089520E040E0813049F460E082E691E091
:100BA0000E94BC0420E040E060E008C06FEF82E6F5
:100BB00091E00E94BC042FEF4FEF6FEF82E691E0CF
:100BC0000C948204682F70E0883028F482E691E06B
:100BD0000E948E0404C082E691E00E94540491E0D9
:100BE00089270895CF92DF92EF92FF920F931F9380
:100BF000CF93DF9305E111E0C0E0D0E0C12CD12C10
:100C00007601F80181918F010E94E20590E0A0E059
:100C1000B0E00C2E04C0880F991FAA1FBB1F0A94B6
:100C2000D2F7C82AD92AEA2AFB2A2196C830D10548
:100C300041F70DE011E0F80181918F010E94E2057A
:100C400090E0A0E0B0E00C2E04C0880F991FAA1F0E
:100C5000BB1F0A94D2F7C82AD92AEA2AFB2A21966E
:100C6000C031D10541F705E011E0F80181918F0114
:100C70000E94E20590E0A0E0B0E00C2E04C0880FD6
:100C8000991FAA1FBB1F0A94D2F7C82AD92AEA2A99
:100C9000FB2A2196C831D10541F7C701B601DF9182
:100CA000CF911F910F91FF90EF90DF90CF9008951B
:100CB000CF93DF93C82FD0E0613059F440E0BE01FC
:100CC000883088F482E691E00E94AF0440E0BE01E3
:100CD0000AC041E0BE01883030F482E691E0DF9145
:100CE000CF910C94AF0482E691E0DF91CF910C9408
:100CF0007504CF92DF92EF92FF920F931F93CF93E1
:100D0000DF9300D0CDB7DEB74DE9E42E41E0F42EFD
:100D100002E510E06701F70180819181A281B38132
:100D2000BD01882799271A830983CE0101960E9465
:100D3000B005F70181919191A191B1917F01692F46
:100D40007A2F8B2F99279801215031093A832983D3
:100D5000CE0101960E94B005F6016081C80102979C
:100D60009A838983CE0101960E94B0050D5F1F4FC3
:100D70000D36110579F61A82198260E0CE010196CE
:100D80000E94B0050F900F90DF91CF911F910F91AE
:100D9000FF90EF90DF90CF900895BF92CF92DF92B7
:100DA000EF92FF920F931F93CF93DF9380E484B968
:100DB00085B980E090E00E944C188F3FD1F462E04A
:100DC00087E00E946A1762E086E00E946A1762E08C
:100DD00085E00E946A1787E00E94D517C1E0892B41
:100DE00009F0C0E086E00E94D517892B39F180E038
:100DF00026C00DE911E0C2E5D0E0CE010E944C18FA
:100E0000B82ECE0101970E944C18C82ED12CE12C8F
:100E1000F12CFE2CED2CDC2CCC24EB28CE010297FF
:100E20000E944C18C82AF801C192D192E192F19225
:100E30008F012396CD36D10501F7C1CF82E0C82BB3
:100E400085E00E94D517892B11F080E001C084E075
:100E5000C82B80910201C80FC093020160E087E0B7
:100E60000E946A1760E086E00E946A1760E085E0F1
:100E70000E946A1783B7817F83BF8091640081607D
:100E8000809364008091640080628093640080910C
:100E90006400886080936400809164008064809323
:100EA00064006091020181E892E00E948F1164EA7F
:100EB00077E081E892E00E94A21164ED77E081E89A
:100EC00092E00E94A71161E08FE00E946A1760E043
:100ED0008FE00E94A61726E040E051EE60E070E04F
:100EE00084E493E00E941F1481EC91E00E94FC0DC9
:100EF00040EA56E861E070E081EC91E00E94060E65
:100F000082E691E00E943C0488E290E00E94C804DE
:100F100082E691E00E943D04882311F061E001C067
:100F200060E08FE00E94A61780E0DF91CF911F91D3
:100F30000F91FF90EF90DF90CF90BF900C94C90578
:100F400082E691E00C943804EF92FF920F931F9386
:100F5000CF93DF937C0100E811E0C0E0D0E0CE1534
:100F6000DF059CF4C831D105D4F481E892E00E94F9
:100F7000B710892BA1F081E892E00E94BF10F80120
:100F8000808321960F5F1F4FEACF81E08093660137
:100F9000DF91CF911F910F91FF90EF90089581E81D
:100FA00092E00E94BF10EDCF4091670150E068E6EB
:100FB00071E081E892E00C9419112F923F924F92C8
:100FC0005F926F927F928F929F92AF92BF92CF92D9
:100FD000DF92EF92FF920F931F93CF93DF93CDB7E2
:100FE000DEB764970FB6F894DEBF0FBECDBF7C01AD
:100FF000162F042F690119821A821B82FC01E60F49
:10100000F11D8081893609F450C098F4843609F4C2
:10101000CBC038F4873409F414C2813609F4EAC12C
:101020000CC4873609F40AC2C0F5863609F43EC2FC
:1010300004C4833709F456C050F4803709F4FEC065
:10104000823709F49DC28D3609F0F7C3E3C08837B3
:1010500009F4AAC28A37B9F1863709F0EEC381E0F4
:10106000860FF701E80FF11D80818983CE0101967B
:101070000E942618982E82E0810FF701E80FF11DDB
:1010800080811D5F8983CE0101960E942618A82EBB
:1010900022242394F6E7BF2EF1C0413011F080E006
:1010A0007AC41F5F0E94DA04D1C34130C1F71F5FC9
:1010B00064EE71E084E493E00E944D1540E150E05D
:1010C00060910201B6C1413019F46EED71E0BAC30E
:1010D00085E0E8EDF1E0D90101900D928A95E1F704
:1010E00085E059C40E94F2056093990170939A01BA
:1010F00080939B0190939C01013009F04BC0E12C3F
:10110000F12C0E2DE11003C063ED71E009C0083031
:1011100019F46AEC71E004C0003131F461EC71E063
:1011200084E493E00E944D154091990150919A01F9
:1011300060919B0170919C010E2C04C0769567957F
:10114000579547950A94D2F7417055276627772718
:101150002AE030E084E493E00E94E915802F877F45
:10116000873041F0073131F06FEB71E084E493E0B8
:101170000E944D152FEFE21AF20A38E1E316F1044E
:1011800009F0BFCF1F5F65E571E084E493E00E9442
:101190008E155CC3F601608380919A0181838091F2
:1011A0009B01828383E0F7C381E0860FF701E80F9C
:1011B000F11D8081898382E0860FF701E80FF11D20
:1011C00080818A8383E0860FF701E80FF11D80811B
:1011D0001C5F8B83CE0101960E9426188538F3E0B0
:1011E0009F0738F59093040180930301013009F0C3
:1011F00056CF68EB71E084E493E00E944D15609156
:101200000301709104014AE050E084E493E00E94FD
:1012100015161CC381E0860FF701E80FF11D8081D0
:101220001E5F8983CE0101960E942618833008F440
:10123000C1C0013009F4FEC28FEFADC381E0860F5B
:10124000F701E80FF11D80818983CE0101960E948C
:101250002618982E82E0810FF701E80FF11DB0806B
:1012600083E0810FF701E80FF11D80811C5F898306
:10127000CE0101960E942618A82E212C8FEF890DF1
:10128000883008F0D4C221E02A1508F4D0C28FE9D2
:101290008B0D823018F036E7B312C9C280919801E5
:1012A000813049F480E00E94C9058091030190914A
:1012B00004010E94C80441E6B41208C0892D90E0E0
:1012C000FC01E45FFE4F7F016A2D14C0F2E6BF12FD
:1012D00006C0892D90E09C012C5F3E4F08C0F6E7C8
:1012E000BF1213C0892D90E09C012C5E3E4F790106
:1012F0006A2DF90180810E945806F701C080D12C27
:10130000E12CF12C3324339404C0C12CD12C760170
:10131000312C80919801823019F00130F9F0BFCE64
:1013200080910301909104010E94C804412C512C2A
:101330003201C414D504E604F70421F060E0842DE2
:101340000E945806FFEF4F1A5F0A6F0A7F0A28E1D2
:10135000421651046104710461F7DFCF332009F4B0
:1013600069C2222019F06FEA71E002C069EA71E0F7
:1013700084E493E00E944D154AE050E0692D84E436
:1013800093E00E94F61521100BC06EE971E084E431
:1013900093E00E944D156B2D84E493E00E94B013FE
:1013A00065E971E084E493E00E944D154AE050E065
:1013B0006A2D3FC0809398010130C1F46FE871E05D
:1013C00084E493E00E944D1580919801811103C03F
:1013D0006BE871E037C2813019F467E871E032C21E
:1013E000823009F033C263E871E02CC2F6018083D9
:1013F00081E0D1C281E0860FF701E80FF11D808105
:101400001E5F8983CE0101960E942618F82EF1E016
:10141000F81708F40ECF0E94C905013009F03FCE3D
:101420006EE771E084E493E00E944D154AE050E0DD
:101430006F2D84E493E00E94FD1508C27724739415
:1014400001C0712C81E0810FF701E80FF11D80814F
:101450008983CE0101960E9426186C0182E0810FDB
:10146000F701E80FF11D80818983CE0101960E946A
:1014700026185C01E4E09E2E910E8FEF8C0D8930D2
:1014800008F0E6C18FEF8A0D883008F0E1C11D5FDA
:10149000F701E10FF11D1081113609F4E0C1123698
:1014A00009F4DFC1163709F0D3C1DDC1413009F0BD
:1014B000F6CD68E171E084E493E00E947C155DE97B
:1014C000A52E51E0B52EC12CD12C61E171E084E450
:1014D00093E00E944D152FEFC21AD20A4AE050E065
:1014E000B60184E493E00E946F166FE071E084E43B
:1014F00093E00E944D15E12CF12C38E0E316F10445
:1015000021F040E1E416F10431F465E071E084E497
:1015100093E00E944D1563E071E084E493E00E9443
:101520004D15F50180819181A281B3810E2C04C0FB
:10153000B695A795979587950A94D2F780FF03C033
:1015400061E071E002C06FEF70E084E493E00E941C
:101550004D15FFEFEF1AFF0A28E1E216F10469F6D4
:101560006DEF70E084E493E00E947C1534E0A30EFC
:10157000B11C49E0C416D10409F0A7CF1F5F66C1B2
:10158000EDE9F1E081EC91E011921192119211924A
:101590008E179F07C9F70E947906013009F07FCDA9
:1015A0001F5F6EEE70E04EC181E0860FF701E80F1D
:1015B000F11D80818983CE0101960E9426184C017D
:1015C00082E0810FF701E80FF11D80811D5F8983A3
:1015D000CE0101960E9426188C838FEF880D8930EA
:1015E00008F025C15C81523008F021C1809198013A
:1015F000813049F480E00E94C905809103019091F7
:1016000004010E94C80485E191E09C878B87E5E096
:10161000F1E0F887EF832DE031E03E832D833E87B4
:101620002D87F88BEF87E5E1F1E0FA87E987212C38
:10163000312CC12CD12C7601C4019927880F991F18
:10164000880F991F9C0127563E4F3A8B298B412CBE
:10165000512C320143943C8B2B8BE989FA89808190
:101660009181A281B381022C04C0B695A79597956C
:1016700087950A94D2F780FF14C06C81ED85FE85B2
:1016800080810E945806D301C201022C04C0880F39
:10169000991FAA1FBB1F0A94D2F7C82AD92AEA2A7F
:1016A000FB2A5101F8E0AF0EB11CEB89FC89808167
:1016B0009181A281B3810A2C04C0B695A795979514
:1016C00087950A94D2F780FF13C06C81EF85F88963
:1016D00080810E945806D301C20104C0880F991F5F
:1016E000AA1FBB1FAA94D2F7C82AD92AEA2AFB2A22
:1016F0005101F0E1AF0EB11CEB89FC898081918131
:10170000A281B3810A2C04C0B695A79597958795B9
:101710000A94D2F780FF13C06C81E985FA85808135
:101720000E945806D301C20104C0880F991FAA1F46
:10173000BB1FAA94D2F7C82AD92AEA2AFB2AFFEFAC
:101740002F1A3F0A29853A852F5F3F4F3A8729870D
:101750004F8558894F5F5F4F588B4F878D859E858A
:1017600001969E878D8798E02916310409F075CF80
:1017700080919801823009F0F4C08091030190912A
:1017800004010E94C804A12CB12CD701C6010A2C67
:1017900004C0B695A795979587950A94D2F780FDD2
:1017A00006C060E0ED81FE8180810E945806C5017F
:1017B0000896A701960104C0569547953795279539
:1017C0008A95D2F720FD06C060E0EF81F885808120
:1017D0000E945806C5014096A701960104C056957F
:1017E0004795379527958A95D2F720FD06C060E08A
:1017F000EB85FC8580810E945806FFEFAF1ABF0A77
:101800002B853C852F5F3F4F3C872B874F81588529
:101810004F5F5F4F58874F838D819E8101969E83D6
:101820008D8398E0A916B10409F0AFCF9AC00130BA
:1018300009F035CC0E94A60509C0013009F0FCCCA6
:101840006EEC70E084E493E00E947C15812FA3C0CD
:10185000013009F0F1CC0E94A605192DF7CF80E0E8
:1018600003C088E001C080E196013327A501552718
:1018700090E07720F9F0220F331F220F331FF90178
:10188000E756FE4F480F591F4150510981E090E043
:10189000A0E0B0E004C0880F991FAA1FBB1F4A95A3
:1018A000D2F74081518162817381842B952BA62BC5
:1018B000B72B22C0220F331F220F331FF901E75627
:1018C000FE4F480F591F4150510981E090E0A0E0C0
:1018D000B0E004C0880F991FAA1FBB1F4A95D2F71A
:1018E00080959095A095B0954081518162817381DA
:1018F00084239523A623B72380839183A283B38374
:101900000E947906013009F0CACB67E771E084E4F0
:1019100093E00E944D154AE050E06C2D84E493E082
:101920000E94F6156FE671E084E493E00E944D1585
:101930004AE050E06A2D84E493E00E94F61564E6E4
:1019400071E084E493E00E944D15612F84E493E0FC
:101950000E94B01365E571E084E493E00E948E1567
:101960007CCF013009F09BCB67EE70E084E493E01C
:101970000E944D154AE050E0682D84E493E00E94F7
:10198000F6156EED70E084E493E00E944D154AE098
:1019900050E06C814ECD64960FB6F894DEBF0FBE5A
:1019A000CDBFDF91CF911F910F91FF90EF90DF900E
:1019B000CF90BF90AF909F908F907F906F905F90EF
:1019C0004F903F902F900895EF92FF920F931F93A7
:1019D000CF93DF93CDB7DEB7C054D1090FB6F894DB
:1019E000DEBF0FBECDBFCE0101967C0180E4F701C2
:1019F00011928A95E9F710E000E080916601882352
:101A0000A9F060E08FE00E94A6178091660188230C
:101A100069F128E631E042E060E080E891E00E9470
:101A2000DD07809367011092660139C084E493E07A
:101A30000E943213892B89F084E493E00E944C13B6
:101A4000182F8F3F51F0682F84E493E00E94B01369
:101A5000F701E00FF11D10830F5F0E94AC051D30F0
:101A600081F21A3071F2003440F2CBCF65E571E0BB
:101A700084E493E00E948E158EE190E00E94C804F9
:101A800060E020E030E041E0C7010E94DD0761E056
:101A9000680FF701E80FF11D80818C3291F361E04E
:101AA0008FE00E94A617C05CDF4F0FB6F894DEBF30
:101AB0000FBECDBFDF91CF911F910F91FF90EF909F
:101AC000089580E090E008958091F10190E02091E8
:101AD000F201821B910908959091F2018091F10128
:101AE000981750F4E92FF0E0ED50FE4F208130E0E0
:101AF0009F5F9093F20102C02FEF3FEFC90108955D
:101B0000E091F2018091F101E81730F4F0E0ED503E
:101B1000FE4F808190E008958FEF9FEF0895089524
:101B2000CF92DF92EF92FF920F931F93CF93DF93A9
:101B30007C01CB018A012091CD01222389F0EB01A8
:101B40006B01C40ED51ECC15DD0569F06991D70176
:101B5000ED91FC910190F081E02DC7010995F3CF43
:101B6000642F0E94610FC801DF91CF911F910F91E7
:101B7000FF90EF90DF90CF900895CF93DF931F9267
:101B8000CDB7DEB769832091CD012223D1F020911A
:101B9000CE01203240F021E030E0FC01338322838B
:101BA00080E090E015C08091CF01E82FF0E0E05395
:101BB000FE4F998190838F5F8093CF018093CE01F8
:101BC00005C061E0CE0101960E94610F81E090E0C6
:101BD0000F90DF91CF910895FC011382128288EE5D
:101BE00093E0A0E0B0E084839583A683B78381E28D
:101BF00091E09183808308951092F2011092F10197
:101C00001092CF011092CE010C94A50E9A01AB0157
:101C100060E072E18AE790E00E94FE17DA01C901F4
:101C20004097A109B109B695A79597958795809397
:101C3000D800089581E08093CD016093F001109267
:101C4000CF011092CE0108950F93062F21E040910D
:101C5000CE0160ED71E08091F0010E940B0F1092B7
:101C6000CF011092CE011092CD010F9108954F92A5
:101C70005F926F927F92AF92BF92CF92EF92FF925C
:101C80000F931F93CF93DF935C01F62ED42F28017F
:101C90003901EE2021F10E941A0ECE2DC43008F039
:101CA000C3E0C150C0F028E0C29FC0011124A301CD
:101CB000920104C056954795379527958A95D2F796
:101CC000CA01B901D501ED91FC910190F081E02D9F
:101CD000C5010995E6CF60E0C5010E94240E4D2F95
:101CE000D13208F040E22C2D63EF71E08F2D0E947D
:101CF000C30E1092F2018093F101DF91CF911F91F9
:101D00000F91FF90EF90CF90BF90AF907F906F902A
:101D10005F904F900895CF92EF920F931F93C22E32
:101D2000E12C00E010E098010E94370E1F910F9106
:101D3000EF90CF90089521E00C948B0E61E00C940D
:101D4000240E81EC91E00C94EC0D1092800281E065
:101D500080937E0210927D0261E086E10E94A617C8
:101D600061E087E10E94A617E9EDF0E080818E7FB7
:101D7000808380818D7F808380E28093D80085E49A
:101D80008093DC000895413208F043C090918002B6
:101D90009111FCCF91E09093800220937E022FEF6F
:101DA0002093130210925802240F2093570290930D
:101DB0007F0290917F02880F892B80937F02809110
:101DC0007D02813061F410927D0280917F028093C8
:101DD000DB008091DC0083FDF8CF85EC01C085EE4F
:101DE0008093DC00809180028130E1F38091580281
:101DF000841710F440915802A9E5B2E0962FFB0138
:101E00008E2F891B841718F48D918193F9CF842F1D
:101E1000089580E008950F93413208F04AC09091F0
:101E200080029111FCCF32E03093800200937E0259
:101E30003FEF309313021092580240935702562FEF
:101E4000A9E5B2E0FB013E2F351B341718F43191A0
:101E50003D93F9CF10927F0230917F02880F832B40
:101E600080937F0280917D02813061F410927D0227
:101E700080917F028093DB008091DC0083FDF8CFAE
:101E800085EC01C085EE8093DC00222321F0809157
:101E900080028230D1F3809113028F3F79F08091DC
:101EA0001302803241F080911302803331F094E0CC
:101EB00005C091E003C092E001C093E0892F0F912B
:101EC0000895613298F420918002243089F460935F
:101ED0003502282FA7E3B2E0FC018E2F821B861764
:101EE00018F481918D93F9CF80E0089581E00895F1
:101EF00082E0089585ED8093DC008091DC0084FD14
:101F0000FCCF10928002089585EC8093DC00109243
:101F1000800208951F920F920FB60F9211242F93F3
:101F20003F934F935F936F937F938F939F93AF9361
:101F3000BF93EF93FF938091D900887F803609F497
:101F40009EC078F5883209F45DC090F4803109F4C0
:101F500056C038F4882309F4F5C0883009F44FC01E
:101F6000F5C0883109F44EC0803209F45FC0EEC07C
:101F7000803409F46AC058F4803309F457C08833B8
:101F800009F0E4C0809313020E94840FDFC0803503
:101F900009F44FC0883509F45DC0883409F0D6C013
:101FA000D3C0883909F4C4C0A8F4883709F467C0DD
:101FB00038F4883609F463C0803709F460C0C6C0BD
:101FC000883809F4B5C0803909F45FC0803809F059
:101FD000BDC05BC0803B09F483C038F4803A09F48B
:101FE00066C0883A09F47CC0B1C0803C09F4A4C042
:101FF000883C09F4A1C0883B09F487C0A7C0809140
:102000007F0210C09091580280915702981770F586
:10201000E091580281E08E0F80935802F0E0E75A79
:10202000FD4F80818093DB0085EC83C08093130299
:102030008BC0E091580281E08E0F8093580280910E
:10204000DB00F0E0E75AFD4F8083909158028091C9
:1020500057026BC0E091580281E08E0F80935802C6
:102060008091DB00F0E0E75AFD4F808380917E0293
:1020700081116AC081E080937D0284EA5EC083E0C2
:102080008093800210921402CFCF8091140280328C
:1020900008F04EC0E091140281E08E0F809314028C
:1020A0008091DB00F0E0EB5EFD4F8083BDCF0E94AE
:1020B000840F80911402803230F4E0911402F0E039
:1020C000EB5EFD4F10826091140270E0E0917902A6
:1020D000F0917A0285E192E009951092140236C0DF
:1020E00084E0809380021092360210923502E091D3
:1020F0007B02F0917C02099580913502811105C027
:1021000081E08093350210923702E091360281E03F
:102110008E0F80933602F0E0E95CFD4F8081809362
:10212000DB009091360280913502981708F47CCF3D
:1021300085E88093DC000AC085EC8093DC00109277
:10214000800204C0109213020E947A0FFF91EF9157
:10215000BF91AF919F918F917F916F915F914F91BF
:102160003F912F910F900FBE0F901F901895809167
:10217000B40290E02091B502821B910908959091DC
:10218000B5028091B402981750F4E92FF0E0EA54B8
:10219000FD4F208130E09F5F9093B50202C02FEF8A
:1021A0003FEFC9010895E091B5028091B402E817AC
:1021B00030F4F0E0EA54FD4F808190E008958FEF15
:1021C0009FEF08950895CF93DF93EC01E0918D0286
:1021D000F0918E023097F1F09091B5028091B402A7
:1021E0009817C0F090E0292F30E02617370754F4F5
:1021F000DE01A20FB31F4C91D901AA54BD4F4C93DD
:102200009F5FF1CF1092B5026093B402CB01DF91D2
:10221000CF910994DF91CF910895E0918F02F091D1
:102220009002309729F01092930210929202099432
:102230000895CF92DF92EF92FF920F931F93CF9367
:10224000DF937C01CB018A0120919102222389F046
:10225000EB016B01C40ED51ECC15DD0569F069914B
:10226000D701ED91FC910190F081E02DC701099516
:10227000F3CF642F0E94D211C801DF91CF911F913B
:102280000F91FF90EF90DF90CF900895CF93DF9361
:102290001F92CDB7DEB76983209191022223D1F03E
:1022A00020919202203240F021E030E0FC013383A3
:1022B000228380E090E015C080919302E82FF0E047
:1022C000EC56FD4F998190838F5F809393028093AA
:1022D000920205C061E0CE0101960E94D21181E018
:1022E00090E00F90DF91CF910895FC01138212824C
:1022F00088EE93E0A0E0B0E084839583A683B78363
:1023000083E391E09183808308951092B502109247
:10231000B40210929302109292020C94B011CF93D7
:10232000DF93EC01862F0E94CE118DE091E10E9497
:10233000F01183EE90E10E94EB11CE01DF91CF917D
:102340000C94851170938E0260938D0208957093A2
:10235000900260938F02089581E892E00C947511C9
:102360001092430381E0809341031092400361E0A7
:1023700082E10E94A61761E083E10E94A617E9EBC3
:10238000F0E080818E7F808380818D7F808380E2FA
:102390008093B80085E48093BC000895880F8093F3
:1023A000BA000895613298F420914303243089F4EF
:1023B0006093F802282FAAEFB2E0FC018E2F821B57
:1023C000861718F481918D93F9CF80E0089581E00C
:1023D000089582E0089590933D0380933C0308950F
:1023E00090933F0380933E03089585ED8093BC0056
:1023F0008091BC0084FDFCCF10924303089585ECCE
:102400008093BC001092430308951F920F920FB661
:102410000F9211242F933F934F935F936F937F936A
:102420008F939F93AF93BF93EF93FF938091B900E6
:10243000887F803609F49EC078F5883209F45DC043
:1024400090F4803109F456C038F4882309F4F5C0BB
:10245000883009F44FC0F5C0883109F44EC080328D
:1024600009F45FC0EEC0803409F46AC058F48033C8
:1024700009F457C0883309F0E4C08093D6020E9463
:10248000FF11DFC0803509F44FC0883509F45DC005
:10249000883409F0D6C0D3C0883909F4C4C0A8F480
:1024A000883709F467C038F4883609F463C0803788
:1024B00009F460C0C6C0883809F4B5C0803909F491
:1024C0005FC0803809F0BDC05BC0803B09F483C0A9
:1024D00038F4803A09F466C0883A09F47CC0B1C087
:1024E000803C09F4A4C0883C09F4A1C0883B09F4ED
:1024F00087C0A7C08091420310C090911B038091B8
:102500001A03981770F5E0911B0381E08E0F8093FA
:102510001B03F0E0E45EFC4F80818093BB0085EC00
:1025200083C08093D6028BC0E0911B0381E08E0FA5
:1025300080931B038091BB00F0E0E45EFC4F80833E
:1025400090911B0380911A036BC0E0911B0381E003
:102550008E0F80931B038091BB00F0E0E45EFC4F84
:1025600080838091410381116AC081E080934003A0
:1025700084EA5EC083E0809343031092D702CFCFFA
:102580008091D702803208F04EC0E091D70281E0FE
:102590008E0F8093D7028091BB00F0E0E852FD4F90
:1025A0008083BDCF0E94FF118091D702803230F42A
:1025B000E091D702F0E0E852FD4F10826091D7021F
:1025C00070E0E0913C03F0913D0388ED92E00995C5
:1025D0001092D70236C084E0809343031092F90230
:1025E0001092F802E0913E03F0913F03099580912B
:1025F000F802811105C081E08093F8021092FA027E
:10260000E091F90281E08E0F8093F902F0E0E6504C
:10261000FD4F80818093BB009091F9028091F80278
:10262000981708F47CCF85E88093BC000AC085EC3D
:102630008093BC001092430304C01092D6020E9403
:10264000F511FF91EF91BF91AF919F918F917F9184
:102650006F915F914F913F912F910F900FBE0F900F
:102660001F901895FC01918D228D892F90E0805C40
:102670009F4F821B91098F7399270895FC01918DBB
:10268000828D981731F0828DE80FF11D858D90E0D5
:1026900008958FEF9FEF0895FC01918D828D98171B
:1026A00061F0828DDF01A80FB11D5D968C91928D36
:1026B0009F5F9F73928F90E008958FEF9FEF089533
:1026C000FC01538D448D252F30E0842F90E0821B38
:1026D000930B541710F0CF9608950197089587ED46
:1026E00094E1892B41F080E090E0892B21F00E9459
:1026F000D71481110DC080E090E0892B71F080E04B
:1027000090E0892B51F00E940000811104C00895CF
:102710000E940000F0CF0C9400000895FC01848D0D
:10272000DF01A80FB11DA35ABF4F2C91848D90E0FB
:1027300001968F739927848FA689B7892C93A089D6
:10274000B1898C91837080648C93938D848D981360
:1027500006C00288F389E02D80818F7D80830895F3
:10276000EF92FF920F931F93CF93DF93EC0181E0E1
:10277000888F9B8D8C8D981305C0E889F98980819D
:1027800085FD26C0F62E0B8D10E00F5F1F4F0F73D7
:102790001127E02E8C8DE8120CC00FB607FCFACF83
:1027A000E889F989808185FFF5CFCE010E948E13DB
:1027B000F1CF8B8DFE01E80FF11DE35AFF4FF08240
:1027C0009FB7F8940B8FEA89FB89808180620AC0E9
:1027D0009FB7F894EE89FF896083E889F989808141
:1027E0008370806480839FBF81E090E0DF91CF9110
:1027F0001F910F91FF90EF900895CF93DF93EC011D
:10280000888D8823C9F0EA89FB89808185FD05C010
:10281000A889B9898C9186FD0FC00FB607FCF5CF4A
:10282000808185FFF2CFA889B9898C9185FFEDCF92
:10283000CE010E948E13E7CFDF91CF910895CF9202
:10284000DF92EF92FF921F93CF93DF93EC016A0127
:102850007B01122F60E874E88EE190E0A7019601F9
:102860000E94FE17DA01C9010197A109B109B695C5
:10287000A795979587959C01E889F98982E08083DF
:10288000211580E13807A8F0E889F989108260E411
:1028900072E48FE090E0A70196010E94FE17DA0132
:1028A000C9010197A109B109B695A7959795879593
:1028B0009C01EC85FD853083EE85FF852083188E95
:1028C000EC89FD891083EA89FB898081806180839E
:1028D000EA89FB89808188608083EA89FB8980811D
:1028E00080688083EA89FB8980818F7D8083DF9186
:1028F000CF911F91FF90EF90DF90CF9008951F929E
:102900000F920FB60F9211242F938F939F93EF93F3
:10291000FF93E0915403F09155038081E0915A03B5
:10292000F0915B0382FD12C0908180915D038F5F07
:102930008F7320915E03821751F0E0915D03F0E008
:10294000EC5BFC4F958F80935D0301C08081FF910C
:10295000EF919F918F912F910F900FBE0F901F902D
:1029600018951F920F920FB60F9211242F933F9339
:102970004F935F936F937F938F939F93AF93BF9387
:10298000EF93FF9384E493E00E948E13FF91EF9105
:10299000BF91AF919F918F917F916F915F914F9177
:1029A0003F912F910F900FBE0F901F90189584E4C8
:1029B00093E00E94321321E0892B09F420E0822F5A
:1029C0000895E4E4F3E01382128288EE93E0A0E03D
:1029D000B0E084839583A683B78385E491E09183F7
:1029E000808385EC90E09587848784EC90E09787DE
:1029F000868780EC90E0918B808B81EC90E0938BCC
:102A0000828B82EC90E0958B848B86EC90E0978BA8
:102A1000868B118E128E138E148E0895CF92DF92B4
:102A2000EF92FF920F931F93CF93DF936C017A0184
:102A30008B01C0E0D0E0CE15DF0581F0D8016D91AB
:102A40008D01D601ED91FC910190F081E02DC60140
:102A50000995892B11F02196EECF7E01C701DF91F8
:102A6000CF911F910F91FF90EF90DF90CF9008953D
:102A70006115710579F0FB0101900020E9F73197AC
:102A8000AF01461B570BDC01ED91FC910280F381F5
:102A9000E02D099480E090E00895EF92FF920F936B
:102AA0001F93CF93DF938C017B01C0E0D0E0F7014F
:102AB000EC0FFD1F6491662361F0D801ED91FC914C
:102AC0000190F081E02DC8010995892B11F0219624
:102AD000EECFCE01DF91CF911F910F91FF90EF903C
:102AE0000895DC01ED91FC910190F081E02D0994B5
:102AF00063E571E00C9438150F931F93CF93DF9328
:102B0000EC010E944D158C01CE010E947815800FBA
:102B1000911FDF91CF911F910F9108950F931F93F4
:102B2000CF93DF93EC010E9438158C01CE010E94F7
:102B30007815800F911FDF91CF911F910F9108950C
:102B40008F929F92AF92BF92EF92FF920F931F933B
:102B5000CF93DF93CDB7DEB7A1970FB6F894DEBF62
:102B60000FBECDBF7C01FA01CB0119A2223008F4BF
:102B70002AE08E010F5D1F4F822E912CA12CB12CCB
:102B8000BF01A50194010E94FE17F901CA0101507D
:102B900011096A3014F4605D01C0695CD8016C935E
:102BA000232B242B252B61F7B801C7010E94381570
:102BB000A1960FB6F894DEBF0FBECDBFDF91CF91C7
:102BC0001F910F91FF90EF90BF90AF909F908F90CB
:102BD00008952115310541F4DC01ED91FC9101903E
:102BE000F081E02D642F09940C94A0159A01462FD2
:102BF00050E060E070E00C94E9150F931F93CF93C1
:102C0000DF93EC010E94F6158C01CE010E9478152D
:102C1000800F911FDF91CF911F910F9108959A011D
:102C2000AB0160E070E00C94E9150F931F93CF9314
:102C3000DF93EC010E940F168C01CE010E947815E3
:102C4000800F911FDF91CF911F910F910895CF9227
:102C5000DF92EF92FF920F931F93CF93DF93211593
:102C6000310581F4DC01ED91FC910190F081E02DC2
:102C7000642FDF91CF911F910F91FF90EF90DF9024
:102C8000CF9009942A30310501F577FF1DC06A0104
:102C90007B01EC016DE20E9471158C0144275527E0
:102CA000BA014C195D096E097F092AE0CE010E9424
:102CB000A015800F911FDF91CF911F910F91FF9071
:102CC000EF90DF90CF9008952AE0DF91CF911F9190
:102CD0000F91FF90EF90DF90CF900C94A0159A0188
:102CE000AB01770F660B770B0C94271608950E94A3
:102CF000DC160E9476160E94CD06CFE6D3E10E9434
:102D0000E40C2097E1F30E946F13F9CF1F920F920A
:102D10000FB60F9211242F933F938F939F93AF93EE
:102D2000BF938091E2039091E303A091E403B091FB
:102D3000E5033091E10326E0230F2D3720F40296BE
:102D4000A11DB11D05C029E8230F0396A11DB11DCA
:102D50002093E1038093E2039093E303A093E403C1
:102D6000B093E5038091E6039091E703A091E80317
:102D7000B091E9030196A11DB11D8093E6039093E4
:102D8000E703A093E803B093E903BF91AF919F914C
:102D90008F913F912F910F900FBE0F901F9018951C
:102DA0002FB7F8946091E2037091E3038091E403FC
:102DB0009091E5032FBF0895789484B5826084BD17
:102DC00084B5816084BD85B5826085BD85B581602F
:102DD00085BDEEE6F0E0808181608083E1E8F0E08F
:102DE0001082808182608083808181608083E0E8BE
:102DF000F0E0808181608083E1EBF0E0808184609D
:102E00008083E0EBF0E0808181608083E1E9F0E0A5
:102E1000808182608083808181608083E0E9F0E04E
:102E2000808181608083E1EAF0E08081826080833C
:102E3000808181608083E0EAF0E08081816080832E
:102E4000EAE7F0E080818460808380818260808313
:102E500080818E7F80838081806880831092C10012
:102E6000089590E0FC013197ED30F10590F5E65AB8
:102E7000FF4F0C942018809180008F7703C08091C1
:102E800080008F7D80938000089584B58F7702C085
:102E900084B58F7D84BD08958091B0008F7703C085
:102EA0008091B0008F7D8093B00008958091900054
:102EB0008F7703C0809190008F7D8093900008955C
:102EC0008091A0008F7703C08091A0008F7D8093B8
:102ED000A0000895CF93DF9390E0FC01E85EFA4FE5
:102EE0002491FC01E05DFA4F8491882361F190E028
:102EF000880F991FFC01E05AFA4FC591D491FC014B
:102F0000EC5AFA4FA591B491611109C09FB7F8949A
:102F10008881209582238883EC912E230BC0623018
:102F200061F49FB7F8948881322F3095832388838A
:102F3000EC912E2B2C939FBF06C08FB7F894E8819D
:102F40002E2B28838FBFDF91CF9108951F93CF93AE
:102F5000DF93282F30E0F901E050FB4F8491F90115
:102F6000E85EFA4FD491F901E05DFA4FC491CC23A9
:102F7000C1F0162F81110E943117EC2FF0E0EE0FF7
:102F8000FF1FEC5AFA4FA591B4919FB7F894111115
:102F900004C08C91D095D82302C0EC91DE2BDC9339
:102FA0009FBFDF91CF911F910895CF93DF93282F7B
:102FB00030E0F901E050FB4F8491F901E85EFA4FEF
:102FC000D491F901E05DFA4FC491CC2391F08111C5
:102FD0000E943117EC2FF0E0EE0FFF1FE85BFA4F75
:102FE000A591B491EC91ED2381E090E021F480E093
:102FF00002C080E090E0DF91CF910895A1E21A2E07
:10300000AA1BBB1BFD010DC0AA1FBB1FEE1FFF1F8C
:10301000A217B307E407F50720F0A21BB30BE40BDC
:10302000F50B661F771F881F991F1A9469F7609523
:103030007095809590959B01AC01BD01CF010895DD
:10304000EE0FFF1F0590F491E02D0994FC018827F5
:103050009927E89421912032E9F3293010F02E309D
:10306000C8F32B3241F02D3239F4689404C00E9429
:103070004418820F911D219120532A30C0F31EF471
:10308000909581959F4F08957AE0979F902D879F07
:10309000802D910D11240895F999FECF92BD81BD27
:1030A000F89A992780B50895262FF999FECF1FBA6F
:1030B00092BD81BD20BD0FB6F894FA9AF99A0FBE61
:0830C00001960895F894FFCF7A
:1030C800E80350C800161412100E0C0A081715133E
:1030D800110F0D0B0900010203040506070000008B
:1030E80000BD0D900D610D8F0D640D6C0D800D00F0
:1030F80000000046111911610DE210B710BF10D37E
:103108001000000000B0130E156013FD1332134CAD
:10311800133E130D0A006E616E00696E66006F76CD
:0231280066003F
:00000001FF
